{
  "_format": "hh-sol-artifact-1",
  "contractName": "CleanupDAO",
  "sourceName": "contracts/CleanupDAO.sol",
  "abi": [
    {
      "inputs": [
        {
          "internalType": "address",
          "name": "_greenCreditTokenAddress",
          "type": "address"
        }
      ],
      "stateMutability": "nonpayable",
      "type": "constructor"
    },
    {
      "anonymous": false,
      "inputs": [
        {
          "indexed": false,
          "internalType": "address",
          "name": "to",
          "type": "address"
        },
        {
          "indexed": false,
          "internalType": "uint256",
          "name": "amount",
          "type": "uint256"
        }
      ],
      "name": "CreditsMinted",
      "type": "event"
    },
    {
      "anonymous": false,
      "inputs": [
        {
          "indexed": false,
          "internalType": "address",
          "name": "from",
          "type": "address"
        },
        {
          "indexed": false,
          "internalType": "uint256",
          "name": "amount",
          "type": "uint256"
        }
      ],
      "name": "FundsReceived",
      "type": "event"
    },
    {
      "anonymous": false,
      "inputs": [
        {
          "indexed": false,
          "internalType": "address",
          "name": "to",
          "type": "address"
        },
        {
          "indexed": false,
          "internalType": "uint256",
          "name": "amount",
          "type": "uint256"
        }
      ],
      "name": "FundsWithdrawn",
      "type": "event"
    },
    {
      "inputs": [],
      "name": "admin",
      "outputs": [
        {
          "internalType": "address",
          "name": "",
          "type": "address"
        }
      ],
      "stateMutability": "view",
      "type": "function"
    },
    {
      "inputs": [
        {
          "internalType": "address payable",
          "name": "ecoStakeContract",
          "type": "address"
        },
        {
          "internalType": "uint256",
          "name": "amount",
          "type": "uint256"
        }
      ],
      "name": "approveRefund",
      "outputs": [],
      "stateMutability": "nonpayable",
      "type": "function"
    },
    {
      "inputs": [],
      "name": "getBalance",
      "outputs": [
        {
          "internalType": "uint256",
          "name": "",
          "type": "uint256"
        }
      ],
      "stateMutability": "view",
      "type": "function"
    },
    {
      "inputs": [],
      "name": "greenCreditToken",
      "outputs": [
        {
          "internalType": "contract GreenCredit",
          "name": "",
          "type": "address"
        }
      ],
      "stateMutability": "view",
      "type": "function"
    },
    {
      "inputs": [
        {
          "internalType": "address",
          "name": "member",
          "type": "address"
        },
        {
          "internalType": "uint256",
          "name": "amount",
          "type": "uint256"
        }
      ],
      "name": "rewardCommunity",
      "outputs": [],
      "stateMutability": "nonpayable",
      "type": "function"
    },
    {
      "inputs": [
        {
          "internalType": "address payable",
          "name": "to",
          "type": "address"
        },
        {
          "internalType": "uint256",
          "name": "amount",
          "type": "uint256"
        }
      ],
      "name": "withdrawFunds",
      "outputs": [],
      "stateMutability": "nonpayable",
      "type": "function"
    },
    {
      "stateMutability": "payable",
      "type": "receive"
    }
  ],
  "bytecode": "0x60c060405234801561001057600080fd5b50604051610cc5380380610cc583398181016040528101906100329190610103565b3373ffffffffffffffffffffffffffffffffffffffff1660808173ffffffffffffffffffffffffffffffffffffffff16815250508073ffffffffffffffffffffffffffffffffffffffff1660a08173ffffffffffffffffffffffffffffffffffffffff168152505050610130565b600080fd5b600073ffffffffffffffffffffffffffffffffffffffff82169050919050565b60006100d0826100a5565b9050919050565b6100e0816100c5565b81146100eb57600080fd5b50565b6000815190506100fd816100d7565b92915050565b600060208284031215610119576101186100a0565b5b6000610127848285016100ee565b91505092915050565b60805160a051610b54610171600039600081816101a401526105930152600081816101c80152818161038301528181610505015261065d0152610b546000f3fe6080604052600436106100595760003560e01c806312065fe01461009e5780639ee8f4a6146100c9578063c1075329146100f4578063c218bce11461011d578063cc1be65e14610146578063f851a4401461016f57610099565b36610099577f8e47b87b0ef542cdfa1659c551d88bad38aa7f452d2bbb349ab7530dfec8be8f333460405161008f9291906106d9565b60405180910390a1005b600080fd5b3480156100aa57600080fd5b506100b361019a565b6040516100c09190610702565b60405180910390f35b3480156100d557600080fd5b506100de6101a2565b6040516100eb919061077c565b60405180910390f35b34801561010057600080fd5b5061011b60048036038101906101169190610806565b6101c6565b005b34801561012957600080fd5b50610144600480360381019061013f9190610806565b610381565b005b34801561015257600080fd5b5061016d60048036038101906101689190610872565b610503565b005b34801561017b57600080fd5b5061018461065b565b60405161019191906108b2565b60405180910390f35b600047905090565b7f000000000000000000000000000000000000000000000000000000000000000081565b7f000000000000000000000000000000000000000000000000000000000000000073ffffffffffffffffffffffffffffffffffffffff163373ffffffffffffffffffffffffffffffffffffffff1614610254576040517f08c379a000000000000000000000000000000000000000000000000000000000815260040161024b9061092a565b60405180910390fd5b80471015610297576040517f08c379a000000000000000000000000000000000000000000000000000000000815260040161028e90610996565b60405180910390fd5b60008273ffffffffffffffffffffffffffffffffffffffff16826040516102bd906109e7565b60006040518083038185875af1925050503d80600081146102fa576040519150601f19603f3d011682016040523d82523d6000602084013e6102ff565b606091505b5050905080610343576040517f08c379a000000000000000000000000000000000000000000000000000000000815260040161033a90610a48565b60405180910390fd5b7feaff4b37086828766ad3268786972c0cd24259d4c87a80f9d3963a3c3d999b0d8383604051610374929190610a89565b60405180910390a1505050565b7f000000000000000000000000000000000000000000000000000000000000000073ffffffffffffffffffffffffffffffffffffffff163373ffffffffffffffffffffffffffffffffffffffff161461040f576040517f08c379a00000000000000000000000000000000000000000000000000000000081526004016104069061092a565b60405180910390fd5b80471015610452576040517f08c379a000000000000000000000000000000000000000000000000000000000815260040161044990610996565b60405180910390fd5b60008273ffffffffffffffffffffffffffffffffffffffff1682604051610478906109e7565b60006040518083038185875af1925050503d80600081146104b5576040519150601f19603f3d011682016040523d82523d6000602084013e6104ba565b606091505b50509050806104fe576040517f08c379a00000000000000000000000000000000000000000000000000000000081526004016104f590610afe565b60405180910390fd5b505050565b7f000000000000000000000000000000000000000000000000000000000000000073ffffffffffffffffffffffffffffffffffffffff163373ffffffffffffffffffffffffffffffffffffffff1614610591576040517f08c379a00000000000000000000000000000000000000000000000000000000081526004016105889061092a565b60405180910390fd5b7f000000000000000000000000000000000000000000000000000000000000000073ffffffffffffffffffffffffffffffffffffffff166340c10f1983836040518363ffffffff1660e01b81526004016105ec9291906106d9565b600060405180830381600087803b15801561060657600080fd5b505af115801561061a573d6000803e3d6000fd5b505050507f8de2f08a37846cafc40abbdddb36ce9ea46df1cf86836123e0ce993f16891248828260405161064f9291906106d9565b60405180910390a15050565b7f000000000000000000000000000000000000000000000000000000000000000081565b600073ffffffffffffffffffffffffffffffffffffffff82169050919050565b60006106aa8261067f565b9050919050565b6106ba8161069f565b82525050565b6000819050919050565b6106d3816106c0565b82525050565b60006040820190506106ee60008301856106b1565b6106fb60208301846106ca565b9392505050565b600060208201905061071760008301846106ca565b92915050565b6000819050919050565b600061074261073d6107388461067f565b61071d565b61067f565b9050919050565b600061075482610727565b9050919050565b600061076682610749565b9050919050565b6107768161075b565b82525050565b6000602082019050610791600083018461076d565b92915050565b600080fd5b60006107a78261067f565b9050919050565b6107b78161079c565b81146107c257600080fd5b50565b6000813590506107d4816107ae565b92915050565b6107e3816106c0565b81146107ee57600080fd5b50565b600081359050610800816107da565b92915050565b6000806040838503121561081d5761081c610797565b5b600061082b858286016107c5565b925050602061083c858286016107f1565b9150509250929050565b61084f8161069f565b811461085a57600080fd5b50565b60008135905061086c81610846565b92915050565b6000806040838503121561088957610888610797565b5b60006108978582860161085d565b92505060206108a8858286016107f1565b9150509250929050565b60006020820190506108c760008301846106b1565b92915050565b600082825260208201905092915050565b7f4f6e6c792061646d696e00000000000000000000000000000000000000000000600082015250565b6000610914600a836108cd565b915061091f826108de565b602082019050919050565b6000602082019050818103600083015261094381610907565b9050919050565b7f496e73756666696369656e742066756e64730000000000000000000000000000600082015250565b60006109806012836108cd565b915061098b8261094a565b602082019050919050565b600060208201905081810360008301526109af81610973565b9050919050565b600081905092915050565b50565b60006109d16000836109b6565b91506109dc826109c1565b600082019050919050565b60006109f2826109c4565b9150819050919050565b7f5472616e73666572206661696c65640000000000000000000000000000000000600082015250565b6000610a32600f836108cd565b9150610a3d826109fc565b602082019050919050565b60006020820190508181036000830152610a6181610a25565b9050919050565b6000610a7382610749565b9050919050565b610a8381610a68565b82525050565b6000604082019050610a9e6000830185610a7a565b610aab60208301846106ca565b9392505050565b7f526566756e64207472616e73666572206661696c656400000000000000000000600082015250565b6000610ae86016836108cd565b9150610af382610ab2565b602082019050919050565b60006020820190508181036000830152610b1781610adb565b905091905056fea26469706673582212207aa943f8f3b53e4aa4143bec2aa119e4826f4c11d0014b124955221e5466dc3e64736f6c63430008140033",
  "linkReferences": {},
  "deployedLinkReferences": {}
}