{
  "_format": "hh-sol-artifact-1",
  "contractName": "EcoStake",
  "sourceName": "contracts/EcoStake.sol",
  "abi": [
    {
      "inputs": [
        {
          "internalType": "address",
          "name": "_cleanupDAOAddress",
          "type": "address"
        }
      ],
      "stateMutability": "nonpayable",
      "type": "constructor"
    },
    {
      "anonymous": false,
      "inputs": [
        {
          "indexed": true,
          "internalType": "address",
          "name": "factory",
          "type": "address"
        },
        {
          "indexed": false,
          "internalType": "uint256",
          "name": "refundAmount",
          "type": "uint256"
        }
      ],
      "name": "ClaimSettled",
      "type": "event"
    },
    {
      "anonymous": false,
      "inputs": [
        {
          "indexed": true,
          "internalType": "address",
          "name": "factory",
          "type": "address"
        },
        {
          "indexed": false,
          "internalType": "uint256",
          "name": "amount",
          "type": "uint256"
        },
        {
          "indexed": false,
          "internalType": "uint256",
          "name": "remainingStake",
          "type": "uint256"
        }
      ],
      "name": "Slashed",
      "type": "event"
    },
    {
      "anonymous": false,
      "inputs": [
        {
          "indexed": true,
          "internalType": "address",
          "name": "factory",
          "type": "address"
        },
        {
          "indexed": false,
          "internalType": "string",
          "name": "licenseId",
          "type": "string"
        },
        {
          "indexed": false,
          "internalType": "uint256",
          "name": "amount",
          "type": "uint256"
        }
      ],
      "name": "Staked",
      "type": "event"
    },
    {
      "anonymous": false,
      "inputs": [
        {
          "indexed": true,
          "internalType": "address",
          "name": "factory",
          "type": "address"
        },
        {
          "indexed": false,
          "internalType": "uint256",
          "name": "amount",
          "type": "uint256"
        }
      ],
      "name": "Withdrawn",
      "type": "event"
    },
    {
      "inputs": [],
      "name": "admin",
      "outputs": [
        {
          "internalType": "address",
          "name": "",
          "type": "address"
        }
      ],
      "stateMutability": "view",
      "type": "function"
    },
    {
      "inputs": [],
      "name": "cleanupDAO",
      "outputs": [
        {
          "internalType": "address",
          "name": "",
          "type": "address"
        }
      ],
      "stateMutability": "view",
      "type": "function"
    },
    {
      "inputs": [
        {
          "internalType": "address",
          "name": "",
          "type": "address"
        }
      ],
      "name": "factoryLicenses",
      "outputs": [
        {
          "internalType": "string",
          "name": "",
          "type": "string"
        }
      ],
      "stateMutability": "view",
      "type": "function"
    },
    {
      "inputs": [
        {
          "internalType": "address",
          "name": "",
          "type": "address"
        }
      ],
      "name": "factoryStakes",
      "outputs": [
        {
          "internalType": "uint256",
          "name": "",
          "type": "uint256"
        }
      ],
      "stateMutability": "view",
      "type": "function"
    },
    {
      "inputs": [
        {
          "internalType": "string",
          "name": "licenseId",
          "type": "string"
        }
      ],
      "name": "registerAndStake",
      "outputs": [],
      "stateMutability": "payable",
      "type": "function"
    },
    {
      "inputs": [
        {
          "internalType": "address",
          "name": "factory",
          "type": "address"
        },
        {
          "internalType": "uint256",
          "name": "refundAmount",
          "type": "uint256"
        }
      ],
      "name": "settleClaim",
      "outputs": [],
      "stateMutability": "nonpayable",
      "type": "function"
    },
    {
      "inputs": [
        {
          "internalType": "address",
          "name": "factory",
          "type": "address"
        },
        {
          "internalType": "uint256",
          "name": "slashAmount",
          "type": "uint256"
        }
      ],
      "name": "slash",
      "outputs": [],
      "stateMutability": "nonpayable",
      "type": "function"
    },
    {
      "inputs": [],
      "name": "topUpStake",
      "outputs": [],
      "stateMutability": "payable",
      "type": "function"
    },
    {
      "inputs": [],
      "name": "withdrawBond",
      "outputs": [],
      "stateMutability": "nonpayable",
      "type": "function"
    }
  ],
  "bytecode": "0x60c06040523480156200001157600080fd5b5060405162001a7138038062001a71833981810160405281019062000037919062000110565b3373ffffffffffffffffffffffffffffffffffffffff1660808173ffffffffffffffffffffffffffffffffffffffff16815250508073ffffffffffffffffffffffffffffffffffffffff1660a08173ffffffffffffffffffffffffffffffffffffffff16815250505062000142565b600080fd5b600073ffffffffffffffffffffffffffffffffffffffff82169050919050565b6000620000d882620000ab565b9050919050565b620000ea81620000cb565b8114620000f657600080fd5b50565b6000815190506200010a81620000df565b92915050565b600060208284031215620001295762000128620000a6565b5b60006200013984828501620000f9565b91505092915050565b60805160a0516118f46200017d600039600081816103500152610aaa0152600081816101ec01528181610ace0152610c0301526118f46000f3fe6080604052600436106100865760003560e01c8063663ccc6211610059578063663ccc621461011757806366eb9cec146101545780639b010b2b1461016b5780639da92c4e14610196578063f851a440146101bf57610086565b806302fb4d851461008b57806303a56656146100b4578063079b13fb146100f15780635a1941081461010d575b600080fd5b34801561009757600080fd5b506100b260048036038101906100ad9190610ccd565b6101ea565b005b3480156100c057600080fd5b506100db60048036038101906100d69190610d0d565b6104ac565b6040516100e89190610d49565b60405180910390f35b61010b60048036038101906101069190610eaa565b6104c4565b005b61011561068a565b005b34801561012357600080fd5b5061013e60048036038101906101399190610d0d565b610840565b60405161014b9190610f72565b60405180910390f35b34801561016057600080fd5b506101696108e0565b005b34801561017757600080fd5b50610180610aa8565b60405161018d9190610fa3565b60405180910390f35b3480156101a257600080fd5b506101bd60048036038101906101b89190610ccd565b610acc565b005b3480156101cb57600080fd5b506101d4610c01565b6040516101e19190610fa3565b60405180910390f35b7f000000000000000000000000000000000000000000000000000000000000000073ffffffffffffffffffffffffffffffffffffffff163373ffffffffffffffffffffffffffffffffffffffff1614610278576040517f08c379a000000000000000000000000000000000000000000000000000000000815260040161026f9061100a565b60405180910390fd5b60008060008473ffffffffffffffffffffffffffffffffffffffff1673ffffffffffffffffffffffffffffffffffffffff168152602001908152602001600020549050818110156102fe576040517f08c379a00000000000000000000000000000000000000000000000000000000081526004016102f590611076565b60405180910390fd5b818161030a91906110c5565b6000808573ffffffffffffffffffffffffffffffffffffffff1673ffffffffffffffffffffffffffffffffffffffff1681526020019081526020016000208190555060007f000000000000000000000000000000000000000000000000000000000000000073ffffffffffffffffffffffffffffffffffffffff16836040516103929061112a565b60006040518083038185875af1925050503d80600081146103cf576040519150601f19603f3d011682016040523d82523d6000602084013e6103d4565b606091505b5050905080610418576040517f08c379a000000000000000000000000000000000000000000000000000000000815260040161040f9061118b565b60405180910390fd5b8373ffffffffffffffffffffffffffffffffffffffff167f45a371af55b0726877a30f464edc14db5879ab096590bacce682cf6c18223596846000808873ffffffffffffffffffffffffffffffffffffffff1673ffffffffffffffffffffffffffffffffffffffff1681526020019081526020016000205460405161049e9291906111ab565b60405180910390a250505050565b60006020528060005260406000206000915090505481565b60003411610507576040517f08c379a00000000000000000000000000000000000000000000000000000000081526004016104fe90611220565b60405180910390fd5b6000600160003373ffffffffffffffffffffffffffffffffffffffff1673ffffffffffffffffffffffffffffffffffffffff16815260200190815260200160002080546105539061126f565b905014610595576040517f08c379a000000000000000000000000000000000000000000000000000000000815260040161058c906112ec565b60405180910390fd5b346000803373ffffffffffffffffffffffffffffffffffffffff1673ffffffffffffffffffffffffffffffffffffffff16815260200190815260200160002060008282546105e3919061130c565b9250508190555080600160003373ffffffffffffffffffffffffffffffffffffffff1673ffffffffffffffffffffffffffffffffffffffff168152602001908152602001600020908161063691906114ec565b503373ffffffffffffffffffffffffffffffffffffffff167f0867e267c5c2edfc5fd36e6e4d1b5ce2f68aa7e310f40397112924e6894bb982823460405161067f9291906115be565b60405180910390a250565b600034116106cd576040517f08c379a00000000000000000000000000000000000000000000000000000000081526004016106c49061163a565b60405180910390fd5b6000600160003373ffffffffffffffffffffffffffffffffffffffff1673ffffffffffffffffffffffffffffffffffffffff16815260200190815260200160002080546107199061126f565b90501161075b576040517f08c379a0000000000000000000000000000000000000000000000000000000008152600401610752906116a6565b60405180910390fd5b346000803373ffffffffffffffffffffffffffffffffffffffff1673ffffffffffffffffffffffffffffffffffffffff16815260200190815260200160002060008282546107a9919061130c565b925050819055503373ffffffffffffffffffffffffffffffffffffffff167f0867e267c5c2edfc5fd36e6e4d1b5ce2f68aa7e310f40397112924e6894bb982600160003373ffffffffffffffffffffffffffffffffffffffff1673ffffffffffffffffffffffffffffffffffffffff1681526020019081526020016000203460405161083692919061174a565b60405180910390a2565b6001602052806000526040600020600091509050805461085f9061126f565b80601f016020809104026020016040519081016040528092919081815260200182805461088b9061126f565b80156108d85780601f106108ad576101008083540402835291602001916108d8565b820191906000526020600020905b8154815290600101906020018083116108bb57829003601f168201915b505050505081565b60008060003373ffffffffffffffffffffffffffffffffffffffff1673ffffffffffffffffffffffffffffffffffffffff16815260200190815260200160002054905060008111610966576040517f08c379a000000000000000000000000000000000000000000000000000000000815260040161095d906117c6565b60405180910390fd5b60008060003373ffffffffffffffffffffffffffffffffffffffff1673ffffffffffffffffffffffffffffffffffffffff1681526020019081526020016000208190555060003373ffffffffffffffffffffffffffffffffffffffff16826040516109d09061112a565b60006040518083038185875af1925050503d8060008114610a0d576040519150601f19603f3d011682016040523d82523d6000602084013e610a12565b606091505b5050905080610a56576040517f08c379a0000000000000000000000000000000000000000000000000000000008152600401610a4d90611832565b60405180910390fd5b3373ffffffffffffffffffffffffffffffffffffffff167f7084f5476618d8e60b11ef0d7d3f06914655adb8793e28ff7f018d4c76d505d583604051610a9c9190610d49565b60405180910390a25050565b7f000000000000000000000000000000000000000000000000000000000000000081565b7f000000000000000000000000000000000000000000000000000000000000000073ffffffffffffffffffffffffffffffffffffffff163373ffffffffffffffffffffffffffffffffffffffff1614610b5a576040517f08c379a0000000000000000000000000000000000000000000000000000000008152600401610b519061189e565b60405180910390fd5b806000808473ffffffffffffffffffffffffffffffffffffffff1673ffffffffffffffffffffffffffffffffffffffff1681526020019081526020016000206000828254610ba8919061130c565b925050819055508173ffffffffffffffffffffffffffffffffffffffff167f55d23cc069a91ed4d5e86ac445df7a97d28d8386f9a18de0074c63a51e33fad282604051610bf59190610d49565b60405180910390a25050565b7f000000000000000000000000000000000000000000000000000000000000000081565b6000604051905090565b600080fd5b600080fd5b600073ffffffffffffffffffffffffffffffffffffffff82169050919050565b6000610c6482610c39565b9050919050565b610c7481610c59565b8114610c7f57600080fd5b50565b600081359050610c9181610c6b565b92915050565b6000819050919050565b610caa81610c97565b8114610cb557600080fd5b50565b600081359050610cc781610ca1565b92915050565b60008060408385031215610ce457610ce3610c2f565b5b6000610cf285828601610c82565b9250506020610d0385828601610cb8565b9150509250929050565b600060208284031215610d2357610d22610c2f565b5b6000610d3184828501610c82565b91505092915050565b610d4381610c97565b82525050565b6000602082019050610d5e6000830184610d3a565b92915050565b600080fd5b600080fd5b6000601f19601f8301169050919050565b7f4e487b7100000000000000000000000000000000000000000000000000000000600052604160045260246000fd5b610db782610d6e565b810181811067ffffffffffffffff82111715610dd657610dd5610d7f565b5b80604052505050565b6000610de9610c25565b9050610df58282610dae565b919050565b600067ffffffffffffffff821115610e1557610e14610d7f565b5b610e1e82610d6e565b9050602081019050919050565b82818337600083830152505050565b6000610e4d610e4884610dfa565b610ddf565b905082815260208101848484011115610e6957610e68610d69565b5b610e74848285610e2b565b509392505050565b600082601f830112610e9157610e90610d64565b5b8135610ea1848260208601610e3a565b91505092915050565b600060208284031215610ec057610ebf610c2f565b5b600082013567ffffffffffffffff811115610ede57610edd610c34565b5b610eea84828501610e7c565b91505092915050565b600081519050919050565b600082825260208201905092915050565b60005b83811015610f2d578082015181840152602081019050610f12565b60008484015250505050565b6000610f4482610ef3565b610f4e8185610efe565b9350610f5e818560208601610f0f565b610f6781610d6e565b840191505092915050565b60006020820190508181036000830152610f8c8184610f39565b905092915050565b610f9d81610c59565b82525050565b6000602082019050610fb86000830184610f94565b92915050565b7f4f6e6c792061646d696e20286f7261636c652900000000000000000000000000600082015250565b6000610ff4601383610efe565b9150610fff82610fbe565b602082019050919050565b6000602082019050818103600083015261102381610fe7565b9050919050565b7f496e73756666696369656e74207374616b650000000000000000000000000000600082015250565b6000611060601283610efe565b915061106b8261102a565b602082019050919050565b6000602082019050818103600083015261108f81611053565b9050919050565b7f4e487b7100000000000000000000000000000000000000000000000000000000600052601160045260246000fd5b60006110d082610c97565b91506110db83610c97565b92508282039050818111156110f3576110f2611096565b5b92915050565b600081905092915050565b50565b60006111146000836110f9565b915061111f82611104565b600082019050919050565b600061113582611107565b9150819050919050565b7f4661696c656420746f2073656e6420736c61736865642066756e647300000000600082015250565b6000611175601c83610efe565b91506111808261113f565b602082019050919050565b600060208201905081810360008301526111a481611168565b9050919050565b60006040820190506111c06000830185610d3a565b6111cd6020830184610d3a565b9392505050565b7f5374616b65206d757374206265203e2030000000000000000000000000000000600082015250565b600061120a601183610efe565b9150611215826111d4565b602082019050919050565b60006020820190508181036000830152611239816111fd565b9050919050565b7f4e487b7100000000000000000000000000000000000000000000000000000000600052602260045260246000fd5b6000600282049050600182168061128757607f821691505b60208210810361129a57611299611240565b5b50919050565b7f416c726561647920726567697374657265640000000000000000000000000000600082015250565b60006112d6601283610efe565b91506112e1826112a0565b602082019050919050565b60006020820190508181036000830152611305816112c9565b9050919050565b600061131782610c97565b915061132283610c97565b925082820190508082111561133a57611339611096565b5b92915050565b60008190508160005260206000209050919050565b60006020601f8301049050919050565b600082821b905092915050565b6000600883026113a27fffffffffffffffffffffffffffffffffffffffffffffffffffffffffffffffff82611365565b6113ac8683611365565b95508019841693508086168417925050509392505050565b6000819050919050565b60006113e96113e46113df84610c97565b6113c4565b610c97565b9050919050565b6000819050919050565b611403836113ce565b61141761140f826113f0565b848454611372565b825550505050565b600090565b61142c61141f565b6114378184846113fa565b505050565b5b8181101561145b57611450600082611424565b60018101905061143d565b5050565b601f8211156114a05761147181611340565b61147a84611355565b81016020851015611489578190505b61149d61149585611355565b83018261143c565b50505b505050565b600082821c905092915050565b60006114c3600019846008026114a5565b1980831691505092915050565b60006114dc83836114b2565b9150826002028217905092915050565b6114f582610ef3565b67ffffffffffffffff81111561150e5761150d610d7f565b5b611518825461126f565b61152382828561145f565b600060209050601f8311600181146115565760008415611544578287015190505b61154e85826114d0565b8655506115b6565b601f19841661156486611340565b60005b8281101561158c57848901518255600182019150602085019450602081019050611567565b868310156115a957848901516115a5601f8916826114b2565b8355505b6001600288020188555050505b505050505050565b600060408201905081810360008301526115d88185610f39565b90506115e76020830184610d3a565b9392505050565b7f546f702d7570206d757374206265203e20300000000000000000000000000000600082015250565b6000611624601283610efe565b915061162f826115ee565b602082019050919050565b6000602082019050818103600083015261165381611617565b9050919050565b7f4e6f742072656769737465726564000000000000000000000000000000000000600082015250565b6000611690600e83610efe565b915061169b8261165a565b602082019050919050565b600060208201905081810360008301526116bf81611683565b9050919050565b600081546116d38161126f565b6116dd8186610efe565b945060018216600081146116f8576001811461170e57611741565b60ff198316865281151560200286019350611741565b61171785611340565b60005b838110156117395781548189015260018201915060208101905061171a565b808801955050505b50505092915050565b6000604082019050818103600083015261176481856116c6565b90506117736020830184610d3a565b9392505050565b7f4e6f207374616b65000000000000000000000000000000000000000000000000600082015250565b60006117b0600883610efe565b91506117bb8261177a565b602082019050919050565b600060208201905081810360008301526117df816117a3565b9050919050565b7f5769746864726177616c206661696c6564000000000000000000000000000000600082015250565b600061181c601183610efe565b9150611827826117e6565b602082019050919050565b6000602082019050818103600083015261184b8161180f565b9050919050565b7f4f6e6c792061646d696e00000000000000000000000000000000000000000000600082015250565b6000611888600a83610efe565b915061189382611852565b602082019050919050565b600060208201905081810360008301526118b78161187b565b905091905056fea2646970667358221220376b968c5a185384128e10b02f31a7e591ef6c5b175746a97f775abb4c1f3ba364736f6c63430008140033",
  "linkReferences": {},
  "deployedLinkReferences": {}
}